{
  "config": {
    "chainId": 1337,
    "berlinBlock": 0,
    "qbft": {
      "blockperiodseconds": 2,
      "epochlength": 30000,
      "requesttimeoutseconds": 4
    }
  },
  "nonce": "0x0",
  "timestamp": "0x58ee40ba",
  "gasLimit": "0x47b760",
  "difficulty": "0x1",
  "mixHash": "0x63746963616c2062797a616e74696e65206661756c7420746f6c6572616e6365",
  "coinbase": "0x0000000000000000000000000000000000000000",
  "alloc": {
    "0x2f140E87352B1fF61492887cB658Ae8567815Ca1": {
      "balance": "100000000000000000000"
    },
    "0x69346A088dDA3A1719Fa7cF17Be8BAfe6c65ab4c": {
      "balance": "100000000000000000000"
    },
    "0xb5a33962e49d461dcc6304D2d8476CCBE662c3Fb": {
      "balance": "100000000000000000000"
    },
    "0x8A877fc2db2b44206b44C1d2846724a1A23dBF91": {
      "balance": "100000000000000000000"
    }
  },
  "extraData": "0xf87aa00000000000000000000000000000000000000000000000000000000000000000f854942f140e87352b1ff61492887cb658ae8567815ca19469346a088dda3a1719fa7cf17be8bafe6c65ab4c94b5a33962e49d461dcc6304d2d8476ccbe662c3fb948a877fc2db2b44206b44c1d2846724a1a23dbf91c080c0"
}
